:020000040800F2
:1000000008250020150200085D050008F10300081E
:1000100059050008D10200086F1700080000000011
:10002000000000000000000000000000DD090008E2
:10003000D50200080000000039080008310C000853
:100040002F0200082F0200082F0200082F020008CC
:100050002F0200082F0200082F0200082F020008BC
:100060002F0200082F0200082F0200082F020008AC
:100070002F0200082F0200082F0200082F0200089C
:100080002F0200082F0200082F0200082F0200088C
:100090002F0200082F0200082F0200082F0200087C
:1000A0002F0200082F0200082F0200082F0200086C
:1000B0002D0D00082F0200082F0200082F02000853
:1000C0002F0200082F0200082F0200082F0200084C
:1000D0002F020008851400082F020008BD14000834
:1000E0002F0200082F0200082F0200082F0200082C
:1000F0002F0200082F0200082F0200082F0200081C
:100100002F0200082F0200082F0200082F0200080B
:100110002F0200082F0200082F0200082F020008FB
:100120002F0200082F0200082F0200082F020008EB
:1001300000F002F800F05EF80AA090E8000C82449B
:100140008344AAF10107DA4501D100F053F8AFF278
:10015000090EBAE80F0013F0010F18BFFB1A43F0A5
:100160000103184784190000A419000010F8013B8E
:100170000A4413F0030408BF10F8014B1D1108BF17
:1001800010F8015B641E05D010F8016B641E01F8C5
:10019000016BF9D1002D15D010F8014B03F00C03C1
:1001A0000C2BA1EB04040ABF10F8013BA4EB831451
:1001B000A4EB032405F1010314F8016B5B1E01F8A5
:1001C000016BF9D5914238BF10F8013BD1D370478C
:1001D0000023002400250026103A28BF78C1FBD850
:1001E000520728BF30C148BF0B6070471FB51FBD05
:1001F00010B510BD00F037F81146FFF7F7FF01F01A
:10020000A1FB00F055F803B4FFF7F2FF03BC00F0C8
:1002100059F800000948804709480047FEE7FEE713
:10022000FEE7FEE7FEE7FEE7FEE7FEE7FEE7FEE7A6
:1002300004480549054A064B70470000CD0C0008EC
:1002400031010008080900200825002008150020B9
:10025000081500207047704770470000004870473D
:10026000A808002070477546FFF7F8FFAE46050066
:100270006946534620F00700854618B020B5FFF7C1
:10028000D7FFBDE820404FF000064FF000074FF0C9
:1002900000084FF0000B21F00701AC46ACE8C009A4
:1002A000ACE8C009ACE8C009ACE8C0098D467047AD
:1002B00010B50446AFF300802046BDE81040FFF7BC
:1002C000A2BF000001491820ABBEFEE726000200D5
:1002D00000BFFEE770472DE9F041024600250026E9
:1002E000002000230024002791F803C00CF00F0524
:1002F00091F803C00CF0100CBCF1000F03D091F882
:1003000002C04CEA050591F800C0BCF1000F31D0E5
:10031000146800202BE04FF0010C0CFA00F3B1F848
:1003200000C00CEA03069E4220D183004FF00F0C60
:100330000CFA03F7BC4305FA03FC4CEA040491F8F9
:1003400003C0BCF1280F06D14FF0010C0CFA00FCE1
:10035000C2F814C00AE091F803C0BCF1480F05D1FF
:100360004FF0010C0CFA00FCC2F810C0401C082829
:10037000D1D31460B1F800C0BCF1FF0F34DD546874
:1003800000202EE000F1080C4FF0010808FA0CF3F1
:10039000B1F800C00CEA03069E4221D183004FF061
:1003A0000F0C0CFA03F7BC4305FA03FC4CEA0404F7
:1003B00091F803C0BCF1280F05D100F1080C08FA30
:1003C0000CF8C2F8148091F803C0BCF1480F07D1B3
:1003D00000F1080C4FF0010808FA0CF8C2F8108080
:1003E000401C0828CED35460BDE8F08141617047BD
:1003F00000BFFEE710B54FF4A06000F0E9F801F08F
:1004000033FA00F0A1F901F0D5F900F013FC00F087
:100410000BF910BD08B50121042000F02FFA4FF4AC
:10042000C050ADF8000010208DF8030003208DF8B7
:10043000020069460448FFF74EFF012003490860A7
:100440000349C1F8AC0108BD00080140B0012142D8
:100450000000214270B504461948006820F470403D
:10046000174908600846006840F4405008600025BD
:1004700021E004F0800028B14FF4006010490C31F5
:10048000086004E04FF400600D4910310860600618
:10049000040E4FF480500A490C310860022001F02C
:1004A0002BFA4FF48050064910310860022001F009
:1004B00023FA681CC5B2082DDBDB00F069FA70BDB9
:1004C0000408014010B51248006820F4704010493B
:1004D00008600846006840F440500860C8140C49A1
:1004E0000C31086040000860022001F005FA4FF46A
:1004F0000060074910310860022001F0FDF94FF457
:100500008050034910310860022001F0F5F910BD58
:100510000408014010B50F48006820F470400D49F0
:1005200008600846006840F4405008608814094993
:100530001031086040100860022001F0DDF94FF42E
:10054000805004490C31086040100860022001F01E
:10055000D3F910BD0408014000BFFEE7704700005A
:1005600070B5002100230F22C47804B3154C246811
:1005700004F4E064C4F5E064210AC1F10403CA4054
:10058000447804FA03F184781440214309010E4CA5
:100590000678A155047804F01F050124AC400578C5
:1005A0006D11AD0005F1E025C5F8004109E00478C2
:1005B00004F01F050124AC40044D0678761145F87F
:1005C000264070BD0CED00E000E400E080E100E0BA
:1005D00002490143024A1160704700000000FA0519
:1005E0000CED00E010B5002000F001F810BD70B572
:1005F0000646002415E004F1B001C8B201F0B9F8D4
:10060000002001F0B6F8102001F0B3F8002504E056
:10061000304601F0BEF8681CC5B2802DF8DB601CC6
:10062000C4B2082CE7DB70BD10B5FFF7F3FE642001
:1006300001F03CF9AE2001F09CF8D52001F099F8CA
:10064000802001F096F8A82001F093F83F2001F0F7
:1006500090F8D32001F08DF8002001F08AF84020B6
:1006600001F087F88D2001F084F8142001F081F862
:10067000202001F07EF8022001F07BF8C82001F074
:1006800078F8A12001F075F8DA2001F072F8122054
:1006900001F06FF8812001F06CF8CF2001F069F8CB
:1006A000D92001F066F8F12001F063F8DB2001F0B9
:1006B00060F8402001F05DF8AF2001F05AF84FF4E7
:1006C000FA7001F0F3F80020FFF791FF10BD70B54C
:1006D00004460D4605F1B001C8B201F04AF81021F8
:1006E00041EA141001F045F804F00F0141F0010057
:1006F00001F03FF870BD2DE9F04781460F461646E0
:10070000984600244FEA481539464846FFF7DFFF70
:1007100000BF05E0705D01F03CF86D1C601CC4B2C8
:10072000102CF7DB781CC1B24846FFF7D0FF00243D
:1007300005E0705D01F02DF86D1C601CC4B2102C3A
:10074000F7DBBDE8F087000000B589B00121082083
:1007500000F094F80121042000F070F8012108460F
:1007600000F08CF84FF47070ADF8040003208DF8A1
:10077000060018208DF8070001A92D48FFF7ABFDF2
:100780004FF400712A48FFF731FE42F20F70ADF8C6
:100790001C008F20ADF818000020ADF81E00ADF849
:1007A0001A0006A9234800F01BFE6020ADF80800DF
:1007B0000120ADF80A000020ADF8100002A91D4884
:1007C00000F0AAFC02A91B4800F0FCFC02A9194891
:1007D00000F058FD02A9174800F0AEFD08211548A9
:1007E00000F0E6FC0821134800F03EFD0821114806
:1007F00000F098FD08210F4800F0DCFD01210D48B4
:1008000000F080FB4FF4FA710A4800F0E0FD4FF46D
:100810001671084800F0DDFD40F23A21054800F06D
:10082000DAFD4FF4FA71034800F0D7FD09B000BDBE
:10083000000C0140000800407047000029B1064A42
:10084000D2690243044BDA6104E0034AD26982436D
:10085000014BDA61704700000010024029B1064ADE
:1008600012690243044B1A6104E0034A126982438D
:10087000014B1A61704700000010024029B1064A7E
:1008800092690243044B9A6104E0034A92698243ED
:10089000014B9A61704700000010024029B1064ADE
:1008A000D2680243044BDA6004E0034AD268824310
:1008B000014BDA60704700000010024030B50021A3
:1008C0000022002400232D4D6D6805F00C0121B19C
:1008D000042905D0082923D105E0294D056022E02F
:1008E000274D05601FE0254D6D6805F47012234DFE
:1008F0006D6805F48034022505EB92421CB9214D48
:10090000554305600BE01D4D6D6805F400351DB1C4
:100910001C4D5543056002E0194D5543056002E04A
:10092000174D056000BF00BF144D6D6805F0F00164
:100930000909154D6B5C0568DD4045600F4D6D681C
:1009400005F4E061090A104D6B5C4568DD40856087
:100950000A4D6D6805F46051C90A0B4D6B5C456822
:10096000DD40C560054D6D6805F44041890B074DBC
:100970006B5CC568B5FBF3F5056130BD0010024046
:1009800000127A0000093D00C6070020D6070020AB
:1009900010B51148006820F470400F4908600846FF
:1009A000006840F40040086088140B490C3108606E
:1009B000022000F0A1FF0848001D00680020C0F3DD
:1009C00046044FF48050044910310860022000F0C2
:1009D00093FF204610BD000004080140704700004E
:1009E0000148007870470000C407002005480078DF
:1009F000012804D10020034908700120704700201D
:100A0000FCE70000C507002010B500F001F810BD9C
:100A10000CB50020019000903348006840F480300D
:100A20003149086000BF3048006800F40030009091
:100A30000198401C0190009818B90198B0F5A06F7A
:100A4000F1D12948006800F4003010B10120009075
:100A500001E0002000900098012843D1234800685D
:100A600040F01000214908600846006820F00300AB
:100A700008600846006840F0020008601A484068B4
:100A8000194948600846406848600846406840F494
:100A9000806048600846406820F47C104860084642
:100AA000406840F4E81048600846006840F08070F4
:100AB000086000BF0C48006800F000700028F9D002
:100AC0000948406820F0030007494860084640682C
:100AD00040F00200486000BF0348406800F00C008E
:100AE0000828F9D10CBD000000100240002002408F
:100AF00010B500240AE01E2101EB0411C8B2234600
:100B0000044A0B21FFF7F7FD601CC4B2042CF2DB92
:100B100010BD0000A402002010B500240AE01E2130
:100B200001EB0411C8B22346044A0B21FFF7E3FD91
:100B3000601CC4B2052CF2DB10BD000024040020B0
:100B400010B500240AE0172101EB0411C8B22346B6
:100B5000044A0621FFF7CFFD601CC4B2062CF2DB6D
:100B600010BD0000C404002010B500240AE01E21BE
:100B700001EB0411C8B22346044A0B21FFF7BBFD69
:100B8000601CC4B2042CF2DB10BD0000440700203E
:100B900010B500240AE01E2101EB0411C8B223465F
:100BA000044A0B21FFF7A7FD601CC4B2042CF2DB42
:100BB00010BD0000C406002010B500240AE01E216C
:100BC00001EB0411C8B22346044A0B21FFF793FD41
:100BD000601CC4B2042CF2DB10BD000044060020EF
:100BE00010B500240AE01E2101EB0411C8B223460F
:100BF000044A0B21FFF77FFD601CC4B2042CF2DB1A
:100C000010BD0000C4050020042808D14FF0E021E9
:100C1000096941F004014FF0E022116107E04FF053
:100C2000E021096921F004014FF0E02211617047D1
:100C3000704700001FB501210846FFF7FFFD4FF088
:100C4000804000F06BF92820ADF8080048F69F407E
:100C5000ADF804000020ADF80A00ADF8060001A9C7
:100C60004FF0804000F0BCFB0121880700F044F900
:100C70004FF4A060FFF7ACFC1C208DF800000220B0
:100C80008DF801008DF8020001208DF80300684600
:100C9000FFF766FC01221146900700F033FA0121AC
:100CA000880700F02FF90020014908801FBD0000CF
:100CB0001C080020024610780B78984203D0087870
:100CC0001070012070470020FCE7000010B51348A9
:100CD000006840F00100114908600846406810496A
:100CE00008400E494860084600680E4908400B4914
:100CF00008600846006820F48020086008464068C4
:100D000020F4FE0048604FF41F008860FFF77CFE6F
:100D10004FF000600449086010BD00000010024060
:100D20000000FFF8FFFFF6FE08ED00E010B501211E
:100D3000880700F0E4F86E480068401C6C490860C1
:100D4000084600684EF66021884202DD00206849AE
:100D5000086068480078401C66490870087800EB15
:100D6000D0714910A0EB4101624A117060480068DF
:100D7000052190FBF1F201FB120060B95D4840785B
:100D8000401C5C494870487800EBD0714910A0EBDA
:100D90004101584A517056480068192190FBF1F200
:100DA00001FB120060B953488078401C514988709B
:100DB000887800EBD0714910A0EB41014D4A917049
:100DC0004B480068322190FBF1F201FB120060B940
:100DD0004848C078401C4749C870C87800EBD071BB
:100DE0004910A0EB4101434AD17041480068642199
:100DF00090FBF1F201FB120060B93E480079401C03
:100E00003C490871087900EBD0714910A0EB410111
:100E1000384A117136480068FA2190FBF1F201FB63
:100E2000120060B933484079401C32494871487912
:100E300000EBD0714910A0EB41012E4A51712C48B2
:100E400000684FF4FA7190FBF1F201FB120060B9F7
:100E500028488079401C27498871887900EBD07137
:100E60004910A0EB4101234A91712148006840F6E6
:100E7000B83190FBF1F201FB120060B91D48C07956
:100E8000401C1C49C871C87900EBD0714910A0EB17
:100E90004101184AD1711648006843F6982190FB29
:100EA000F1F201FB120060B91248007A401C1149AE
:100EB0000872087A00EBD0714910A0EB41010D4A8D
:100EC00011720B48006847F2305190FBF1F201FBC0
:100ED000120060B90748407A401C06494872487AB7
:100EE00000EBD0714910A0EB4101024A517210BDD4
:100EF000000000201C080020CA4302827047CA4339
:100F00000282704721B1028842F00102028004E0AF
:100F100002884FF6FE731A400280704710B50446EF
:100F20006848844208D10121C014FFF7B7FC0021B2
:100F3000E014FFF7B3FCC4E0B4F1804F08D1012105
:100F40000846FFF78BFC00210120FFF787FCB8E083
:100F50005D48844208D101210220FFF77FFC002177
:100F60000220FFF77BFCACE05848844208D1012105
:100F70000420FFF773FC00210420FFF76FFCA0E0C2
:100F80005348844208D101210820FFF767FC002163
:100F90000820FFF763FC94E04E48844208D1012109
:100FA0001020FFF75BFC00211020FFF757FC88E0C2
:100FB0004948844208D101212020FFF74FFC00213D
:100FC0002020FFF74BFC7CE04448844208D10121FB
:100FD0004014FFF763FC00216014FFF75FFC70E032
:100FE0003F48844209D10121C804FFF757FC002182
:100FF0004FF40020FFF752FC63E03A48844209D1E5
:1010000001210805FFF74AFC00214FF48010FFF78B
:1010100045FC56E03448844209D101214805FFF7D8
:101020003DFC00214FF40010FFF738FC49E02F4849
:10103000844208D101214020FFF710FC002140200C
:10104000FFF70CFC3DE02A48844208D101218020B2
:10105000FFF704FC00218020FFF700FC31E0254869
:10106000844208D101218015FFF7F8FB0021A0156B
:10107000FFF7F4FB25E02048844209D10121080450
:10108000FFF70CFC00214FF48030FFF707FC18E05D
:101090001A48844209D101214804FFF7FFFB0021CF
:1010A0004FF40030FFF7FAFB0BE01548844208D1FB
:1010B00001218804FFF7F2FB00214FF48020FFF7A5
:1010C000EDFB10BD002C0140000400400008004072
:1010D000000C0040001000400014004000340140AB
:1010E000004C0140005001400054014000180040F5
:1010F000001C00400020004000400140004401402E
:10110000004801401AB183890B43838102E083893F
:101110008B4383817047000070B5002400220023B8
:10112000058C4FF6FE7635400584028C8388048B4F
:101130004FF68F752C40B51E2C400D882C43751E24
:101140002A400D892A434D882A43144DA8420BD0CA
:10115000134DA84208D0134DA84205D0124DA84205
:1011600002D0124DA84213D14FF6F7752A404D898F
:101170002A434FF6FB752A408D882A434FF6FF65B8
:101180002B404FF6FF552B408D892B43CD892B43A8
:1011900083800483CD888586028470BD002C014045
:1011A000003401400040014000440140004801403B
:1011B0000A460021018B4FF6F77319401143018352
:1011C0007047000070B5002400220023058C4FF604
:1011D000EF7635400584028C8388048B48F6FF75D2
:1011E0002C404FF6FF452C400D884FF6FF7606EA5F
:1011F00005252C434FF6DF752A400D8906EA0515B3
:101200002A434D8806EA05152A43154DA84202D007
:10121000144DA8421DD14FF67F752A404D894FF6D7
:10122000FF7606EA05152A434FF6BF752A408D88DA
:1012300006EA05152A434FF6FF352B404FF2FF759E
:101240002B408D8906EA85052B43CD8906EA850565
:101250002B4383800483CD880587028470BD000002
:10126000002C0140003401400A460021018B4FF25E
:10127000FF7319404FF6FF7303EA022319430183FA
:101280007047000070B5002400220023058C4FF643
:10129000FF6635400584028C8388848B4FF68F75FA
:1012A0002C404FF6FC752C400D882C434FF6FF5513
:1012B0002A400D894FF6FF7606EA05252A434D8818
:1012C00006EA05252A43154DA84202D0144DA8422E
:1012D0001DD14FF2FF752A404D894FF6FF7606EA81
:1012E00005252A434FF6FF352A408D8806EA052555
:1012F0002A434EF6FF752B404DF6FF752B408D8926
:1013000006EA05152B43CD8906EA05152B43838094
:101310008483CD888587028470BD0000002C014045
:10132000003401400A460021818B4FF6F7731940C3
:10133000114381837047000070B500220023002410
:10134000058C4EF6FF7635400584038C8488828BAD
:1013500048F6FF752A404FF6FF452A400D884FF6A4
:10136000FF7606EA05252A434DF6FF752B400D89C9
:1013700006EA05352B434D8806EA05352B430B4D10
:10138000A84202D00A4DA84208D14BF6FF752C4066
:101390008D894FF6FF7606EA85152C43848082837B
:1013A000CD88A0F84050038470BD0000002C01409F
:1013B000003401400A460021818B4FF2FF7319402F
:1013C0004FF6FF7303EA0223194381837047818636
:1013D00070470187704781877047A0F840107047B9
:1013E000002202881D4B98420ED01D4B98420BD014
:1013F000B0F1804F08D01B4B984205D01A4B984251
:1014000002D01A4B984204D14FF68F731A404B8882
:101410001A43174B984207D0164B984204D04FF608
:10142000FF431A40CB881A4302808B8883850B8840
:1014300003850A4B98420BD0094B984208D00E4BBB
:10144000984205D00D4B984202D00D4B984201D1E5
:101450000B7A03860123838270470000002C014031
:10146000003401400004004000080040000C00402F
:1014700000100040001400400040014000440140C2
:101480000048014010B540F22551094800F0AEF87F
:1014900001280CD1064800F065F9064908700120C2
:1014A0000549087040F22551014800F036F810BD9A
:1014B00000380140C4070020C507002010B540F2E5
:1014C00025510E4800F092F8B0B10D4800888028F0
:1014D00002D300200A4908800848001D0088C1B2D4
:1014E000074802880088401C054B18800548815435
:1014F0002021024800F008F810BD0000004800401C
:10150000160800202608002001F40072B2F5007FC2
:1015100000D100BFCA430280704710B500220023EB
:1015200040F66A14A14200D100BF0A12012494407F
:10153000A3B2DC43048010BD21B1828942F4005281
:10154000828104E082894DF6FF731A4082817047E0
:1015500010B504462048844209D101218803FFF7D1
:101560009DF900214FF48040FFF798F932E01B48C5
:10157000844209D101214804FFF770F900214FF49A
:101580000030FFF76BF925E01548844209D10121AD
:101590008804FFF763F900214FF48020FFF75EF91C
:1015A00018E01048844209D10121C804FFF756F918
:1015B00000214FF40020FFF751F90BE00A48844264
:1015C00008D101210805FFF749F900214FF48010E7
:1015D000FFF744F910BD000000380140004400400E
:1015E00000480040004C00400050004070B50246EA
:1015F000002400230025002040F66A16B14200D1E5
:1016000000BFC1F3421501F01F03012606FA03F3E0
:10161000012D02D19689334006E0022D02D1168AAF
:10162000334001E0968A33400C12012606FA04F496
:101630001688344013B10CB1012000E0002070BDC9
:10164000F0B50346002400260025002040F66A1766
:10165000B94200D100BF1846C1F3421401F01F0681
:10166000012707FA06F5012C01D10C3004E0022C09
:1016700001D1103000E014301AB107682F43076021
:1016800002E00768AF430760F0BD00002DE9F047B6
:1016900086B005460E460024A24600BFA14600279C
:1016A000B08900B100BF2F462C8A4CF6FF70044071
:1016B000F08804432C82AC894EF6F3100440B088C5
:1016C00031890843718908430443AC81AC8A4FF6E1
:1016D000FF400440B0890443AC8201A8FFF7EEF854
:1016E0001F48874202D1DDF810A001E0DDF80CA010
:1016F000A88900F4004040B10AEBCA0000EB0A10D0
:1017000031684900B0FBF1F807E00AEBCA0000EBD2
:101710000A1031688900B0FBF1F86420B8FBF0F0E2
:1017200004012009642101FB1089A88900F400400C
:1017300040B1322000EBC900B0FBF1F000F007002F
:10174000044308E0322000EB09106421B0FBF1F003
:1017500000F00F0004432C8106B0BDE8F0870000C4
:101760000038014001468888C0F30800704700BF78
:10177000FEE710B50446FEF7A5FE7820FEF76AFEE8
:101780000020FEF767FE2046FEF764FEFEF7C2FE6D
:1017900010BD10B50446FEF795FE7820FEF75AFE00
:1017A0004020FEF757FE2046FEF754FEFEF7B2FE3D
:1017B00010BD000000B587B001218803FFF75EF877
:1017C00001210420FFF75AF82548FFF7C1FE4FF426
:1017D0000070ADF8180003208DF81A0018208DF85D
:1017E0001B0006A91F48FEF776FD4FF48060ADF898
:1017F000180048208DF81B0003208DF81A0006A958
:101800001848FEF768FD25208DF8040001208DF8AA
:1018100005008DF806008DF8070001A8FEF7A0FE70
:101820004FF4165002900020ADF80C00ADF80E00F9
:10183000ADF81000ADF814000C20ADF8120002A9AC
:101840000748FFF723FF012240F225510448FFF724
:10185000F7FE01210248FFF76FFE07B000BD000050
:10186000003801400008014010B56FF00400FFF798
:10187000CBF90A4800680A49B0FBF1F00949087041
:101880000846007800EB4001C1EBC0104FF6FF7135
:1018900001EAC0000449088010BD0000E0070020F4
:1018A00000127A00DA070020DC0700200146114A06
:1018B00012884A434FF0E0235A6100229A611A4687
:1018C000126942F001021A6100BF4FF0E022106974
:1018D00000F001021AB100F48032002AF5D04FF076
:1018E000E022126922F001024FF0E0231A61002287
:1018F0009A617047DC0700200146114A12784A437A
:101900004FF0E0235A6100229A611A46126942F0B0
:1019100001021A6100BF4FF0E022106900F00102DD
:101920001AB100F48032002AF5D04FF0E02212699B
:1019300022F001024FF0E0231A6100229A61704701
:10194000DA070020FEF756FDFEF74CFEFFF7E4F83D
:10195000FFF7F6F8B6E0FFF749F8012838D1FFF7AE
:101960003FF85949087008460078312817D004DC40
:10197000102807D030282AD109E0322817D0332880
:1019800025D11CE0FEF72EFEFFF7B2F81FE0FEF7B0
:1019900029FEFFF725F901204C49087017E0FEF7F2
:1019A00021FEFFF7F5F80120494908700FE0FEF726
:1019B00019FEFFF7D9F801204649087007E0FEF745
:1019C00011FEFFF7F9F801204349087000BF00BF7E
:1019D00042494348FFF76EF9012873D13D4800782A
:1019E000C8B13C480078401C3A4908704FF42F7148
:1019F0003C48FFF7ECFC3748007806280BDD4FF435
:101A0000FA713848FFF7E3FC002032490870FEF70E
:101A1000E9FDFFF76DF830480078C8B12E4800782E
:101A2000401C2D4908704FF461712E48FFF7D1FC1E
:101A30002948007806280BDD4FF416712948FFF776
:101A4000C8FC002024490870FEF7CCFDFFF750F8D1
:101A50001E480078C8B11D480078401C1B4908701A
:101A60004FF461711F48FFF7B8FC1848007806284A
:101A70000BDD4FF4FA711B48FFF7AFFC0020134950
:101A80000870FEF7AFFDFFF733F811480078C8B1D2
:101A90000F480078401C0E4908704FF461711148DE
:101AA000FFF799FC0A48007806280BDD40F2262152
:101AB0000C48FFF790FC002005490870FEF792FDE6
:101AC000FFF716F847E7000015080020100800206F
:101AD000110800200E0800200F0800201F08002019
:101AE0001308002000080040081B00080000002028
:101AF0001C0800006C010008C01F00081C08002022
:101B0000EC1C0000D0010008120001100420202469
:101B1000012018BF64243428242220200010080447
:101B2000023F45444442424241782123028201322D
:101B3000FE0640050200004001527F082143200CB0
:101B4000F8F8484C4F4B4A4848F8F831400500FF38
:101B5000FF440113FFFF6010052424E4E462102019
:101B60003010FFFF10F0F000081C1F0B0C0D4F6E23
:101B7000341C0F23607F3F0080C060F8FF070235F0
:101B80002006E0703C1C085020077F7F0406033FBE
:101B9000621278823005404244587020045048C692
:101BA0001E73404401115F100E000808E8292E281A
:101BB000E80808C80C0B06217F100A0949897F0034
:101BC000000F408006112110053000FF2001110593
:101BD000003510222C200004040201FF8040300E4A
:101BE00001061820408000000484844424548F148B
:101BF00024448484040000413900003C4040424CAD
:101C00004040700409310001A336360E2408040454
:101C10000484E43C274512E40C12005F1182110198
:101C2000318561345004C03FC00A10078040201045
:101C30000C03393004030C1080D0040000FE61B2A4
:101C4000336F059D0011A018074242C27E42C23187
:101C5000290F61E02A3F2606417000280D0022323C
:101C60002AA6A26221110981011E180E4222130B1D
:101C700042827E02020A12234660141530AC6330A1
:101C80000088C8A8998E88A8C888002267221212E6
:101C9000E0320F831A71C0A80602C2020202C0AA73
:101CA0007FC01010201808EAACA8A8AFA8A8ACEA1A
:101CB000082818D1123E2F3C0802FF020212221EF1
:101CC0002103100610E82427A4011FB4AC1F0372DF
:101CD000005B3004444847E0240DFE225A86402031
:101CE000504C434C5020014C0DFF04080740445811
:101CF000414E6058472003051BE010051060028C20
:101D0000452292012129100A04047E01407E4242AC
:101D10007E024004427E4020411F71201C04444842
:101D200050100320057F504844601AFC7B2005FCBE
:101D300025262408141A040040308F80844C552531
:101D40002525554C80808000807000FF1008FEA57E
:101D500012FA04180EFE00806018070810FF5048A1
:101D60004641E4100BFF00100C055555D5057F06C4
:101D700010125505140C001010108AA96B3525257A
:101D8000ABE9080C100B00109453321E32521000B5
:101D90008F4F427EE003424901297F10110008CC99
:101DA0004A49484ACC18007F88888482E01E1C0576
:101DB000121252928003427E10497A10091090113B
:101DC000161010D010F0240D30100F084840415E5E
:101DD00040704E41802D9A031C092202FE020262CD
:101DE0005A462503101E0818080744348E814628D9
:101DF0001028468180001090FF9010E2222A2AF2DB
:101E00002A26225F2C060601FF000161034E7FE7B0
:101E1000031DAB031C06CC0040A09EA404279EA07B
:101E2000A115F81006908840432C3F164100412030
:101E300015F67EFFB004137F208800041A00FF000F
:101E4000016F0303E0031D680320045F44F4062EC2
:101E5000C4E003181000108E402018070040804096
:101E60003F00010E11100960F80708484848FF04B8
:101E70001804480800A49BFF00422405402038E7CE
:101E8000984300F87418050101017FCC230000433A
:101E90003DA10400051A0C12120C8B051CE00D1E4E
:101EA00080041804100C24BC2BA5F6C21624E01DD7
:101EB0000C031006FA4A4A4A4F041AFAE9053FA0F1
:101EC00021812EFF43063724FF1F2C06080888486F
:101ED0002F00052C05092F48889005152018068726
:101EE00080FC402086250335202D9B030007404FB2
:101EF0004044474078802C080202F2121212F2E4A9
:101F00000321D011F31E0F9405660F5E1DA103710E
:101F1000224D890324047F20202F340427202021F0
:101F200026FCB118084020D8171010F0F0113E1F01
:101F300002FFE6031C0621160816212006200D408C
:101F40003C10FF101020108F7808F8C1180D020601
:101F500002FF0101044221184681022D01042C07D1
:101F60000AEA2A2AEA0A5E031B42420F340A1F4089
:101F7000CB52322B200244DF1E8011051DA9031E07
:101F8000C3B4031D6F061D7006140840221A0242D6
:101F9000827F880405400A1260000039AF200501E5
:101FA000020304045C090607080902040608770511
:101FB0009005A24A040022211E0225000100000013
:0400000508000131BD
:00000001FF
